DT0000000000000000002000015PARTD 0010006434066020046                                                                                                                                                                                                                                                                                                                                                                                                                                                                                                                                                                FNB Trx Reject DR                                                               201830520183051418422                   000000000002000000D710N2018305PARCY00000200001501                          0FNB Trx Reject DR               Processing date                 Transaction Amount              GL000000000000000000S02042280S02048540S0203MAQ                                                                                                                                                                                                                                                                                                                                                                                                                                                                                                      000000000002000000710
DT0000000000000000003000015PARTD 0020006434066020047                                                                                                                                                                                                                                                                                                                                                                                                                                                                                                                                                                FNB Trx Reject DR                                                               201830520183051314217                   000000000002000000C710N2018305PARCY00000200001501                          0FNB Trx Reject DR               Processing date                 Transaction Amount              GL000000000000000000S02042280S02048540S0203MAQ                                                                                                                                                                                                                                                                                                                                                                                                                                                                                                      000000000002000000710
DT0000000000000000004000015PARTD 0030006434066020048                                                                                                                                                                                                                                                                                                                                                                                                                                                                                                                                                                FNB Trx Reject DR                                                               201830520183051314220                   000000000002000000D710N2018305PARCY00000200001501                          0FNB Trx Reject DR               Processing date                 Transaction Amount              GL000000000000000000S02042280S02048540S0203MAQ                                                                                                                                                                                                                                                                                                                                                                                                                                                                                                      000000000002000000710
DT0000000000000000005000015PARTD 0040006434066020049                                                                                                                                                                                                                                                                                                                                                                                                                                                                                                                                                                FNB Trx Reject DR                                                               201830520183051418422                   000000000002000000C710N2018305PARCY00000200001501                          0FNB Trx Reject DR               Processing date                 Transaction Amount              GL000000000000000000S02042280S02048540S0203MAQ                                                                                                                                                                                                                                                                                                                                                                                                                                                                                                      000000000002000000710
DT0000000000000000006000015PARTD 0010006434066020050                                                                                                                                                                                                                                                                                                                                                                                                                                                                                                                                                                FNB Trx Reject DR                                                               201830520183051418422                   000000000002000008D710N2018305PARCY00000300001502                          0FNB Trx Reject DR               Processing date                 Transaction Amount              GL000000000000000000S02042280S02048540S0203MAQ                                                                                                                                                                                                                                                                                                                                                                                                                                                                                                      000000000002000008710